:03000000020006F5
:0F005F00750800750936750A6E750B01020003EE
:0300030002008078
:1A006E00AF9174DF5FF591AF9274DF5FF59222D2952212006E12007D80FB51
:06003500E478FFF6D8FD9F
:200013007900E94400601B7A0090008C780175A000E493F2A308B8000205A0D9F4DAF27507
:02003300A0FF2C
:20003B007800E84400600A790175A000E4F309D8FC7800E84400600C7900900001E4F0A3C3
:04005B00D8FCD9FAFA
:0D00060075810B120088E582600302000383
:04008800758200225B
:00000001FF
